:100000000C9454010C9473010C94AD010C94710187
:100010000C9471010C9452020C9471010C947101B6
:100020000C9471010C9471010C9474030C94710183
:100030000C9471010C9471010C94E6010C94710103
:100040000C9471010C9471010C94F8030C947101DF
:100050000C9471010C9469020C9471010C9471015F
:100060000C9471010C947101050000000000050062
:10007000005F000005000700070005147F147F14CF
:1000800005242A7F2A12052313086462053649567F
:10009000205005080703000005001C224100050050
:1000A00041221C000514083E08140508083E0808F3
:1000B0000500B07000000508080808080500606029
:1000C0000000052010080402053E5149453E050088
:1000D000427F4000057249494946052141494D3357
:1000E000051814127F10052745454539053C4A4936
:1000F0004931054121110907053649494936054667
:100100004949291E05000014000005004034000084
:100110000508142241000514141414140541221476
:100120000800050201590906053E415D594E057C4E
:100130001211127C057F49494936053E4141412251
:10014000057F4141413E057F49494949057F0909EC
:100150000909053E41415173057F0808087F0500E4
:10016000417F4100052040413F01057F08142241A5
:10017000057F40404040057F020C027F057F040858
:10018000107F053E4141413E057F09090906053EB4
:100190004151215E057F0919294605264949493201
:1001A0000501017F0101053F4040403F051F204000
:1001B000201F053F4038403F0563140814630503C2
:1001C0000478040305615149454305007F4141001E
:1001D000050204081020050041417F0005040201CA
:1001E000020405404040404005070B000000052088
:1001F00054547840057F2844443805384444442802
:1002000005384444287F0538545454180500087EA6
:1002100009020518A4A49C78057F08040478050049
:10022000447D4000052040403D00057F10284400EB
:100230000500417F4000057C04780478057C0804B3
:10024000047805384444443805FC1824241805185B
:10025000242418FC057C080404080548545454243C
:100260000504043F4424053C4040207C051C2040FC
:10027000201C053C4030403C054428102844054CD7
:100280009090907C054464544C440500083641002D
:10029000050000770000050041360800050402044F
:1002A000080405007F417F0011241FBECFEFD8E076
:1002B000DEBFCDBF11E0A0E0B1E0E6E6FEE102C0A6
:1002C00005900D92AC32B107D9F725E0ACE2B1E070
:1002D00001C01D92A736B207E1F70E9462040C9498
:1002E000310F0C9400001F920F920FB60F92112441
:1002F0002F933F934F935F936F937F938F939F932E
:10030000AF93BF93EF93FF93809100019091010110
:10031000019690930101809300018135910530F0A1
:1003200080E590E0909301018093000160910001CD
:1003300080E090E00E94EC0EFF91EF91BF91AF91B1
:100340009F918F917F916F915F914F913F912F91ED
:100350000F900FBE0F901F9018951F920F920FB61F
:100360000F9211242F933F934F935F936F937F933B
:100370008F939F93AF93BF93EF93FF93809100016F
:10038000909101010197909301018093000188975A
:1003900030F488E290E09093010180930001609135
:1003A000000180E090E00E94EC0EFF91EF91BF9180
:1003B000AF919F918F917F916F915F914F913F91FD
:1003C0002F910F900FBE0F901F9018951F920F92B4
:1003D0000FB60F9211242F933F934F935F936F9318
:1003E0007F938F939F93AF93BF93EF93FF9340912E
:1003F0004801509149014F5F5F4F5093490140932D
:1004000048019A0136952795369527953695279573
:10041000A5ECB0E20E94220C929582958F708927FC
:100420009F70892768EE73E0869F9001879F300D4B
:10043000969F300D11244217530719F5609144011E
:10044000709145017695679580E090E00E94F10AF1
:1004500020E030E040E752E40E947F0B0E94C20A95
:100460007093530160935201109245011092440120
:1004700080914601909147010196909347018093A6
:100480004601FF91EF91BF91AF919F918F917F9125
:100490006F915F914F913F912F910F900FBE0F90F1
:1004A0001F9018951F920F920FB60F9211248F93E1
:1004B0009F9380914401909145010196909345014D
:1004C000809344019F918F910F900FBE0F901F90CA
:1004D00018951F920F920FB60F9211242F933F93EE
:1004E0004F935F936F937F938F939F93AF93BF933C
:1004F000CF93DF93EF93FF9380915001909151013F
:10050000892B09F047C0E8E7F0E080819181909362
:100510003B0180933A01808191818F3F934039F470
:100520008FEF90E090934101809340010CC0809147
:1005300078009091790096958795969587959093F8
:1005400041018093400180915A0190915B01A091FB
:100550005C01B0915D018C3221E09207A105B105EB
:1005600068F420914201309143012531310530F08A
:1005700020E530E030934101209340018E359140D9
:10058000A105B10520F48BB180628BB903C08BB19A
:100590008F7D8BB9C0915001D0915101C130D105EF
:1005A00099F580917800909179008F3F934069F49C
:1005B0008FEF90E090933F0180933E0184E690E0BE
:1005C00090934D0180934C011FC0809178009091D1
:1005D0007900969587959695879590933F0180939E
:1005E0003E0144E6489F9001499F300D1124A1E847
:1005F000B0E80E94220C880F892F881F990B9195D3
:1006000090934D0180934C01C230D10591F58091BA
:100610007800909179008F3F934069F48FEF90E0DC
:1006200090933D0180933C0188EC90E090934F01C2
:1006300080934E011EC0609178007091790076958C
:1006400067957695679570933D0160933C01695677
:10065000710980E090E00E94F10A23E333E343EB69
:100660005EE30E94500A0E94C20A70934F01609399
:100670004E01239731F580917800909179008F3F5A
:10068000934069F48FEF90E0A0E0B0E080932C01FC
:1006900090932D01A0932E01B0932F0112C0809151
:1006A0007800909179009695879596958795A0E02A
:1006B000B0E080932C0190932D01A0932E01B09374
:1006C0002F01FF91EF91DF91CF91BF91AF919F915A
:1006D0008F917F916F915F914F913F912F910F90EB
:1006E0000FBE0F901F9018951F920F920FB60F928A
:1006F00011240F931F932F933F934F935F936F9307
:100700007F938F939F93AF93BF93EF93FF938091CA
:10071000810086FF0FC08091860090918700A0E045
:10072000B0E08093540190935501A0935601B0938B
:10073000570133C06091860070918700CB01A0E023
:10074000B0E0009154011091550120915601309173
:100750005701801B910BA20BB30B880F991FAA1F87
:10076000BB1F880F991FAA1FBB1FBC01CD01660FBD
:10077000771F881F991F660F771F881F991F2AE30D
:1007800030E040E050E00E94000C20935A0130938A
:100790005B0140935C0150935D01E1E8F0E09081E2
:1007A00080E489278083FF91EF91BF91AF919F9162
:1007B0008F917F916F915F914F913F912F911F91F9
:1007C0000F910F900FBE0F901F9018959093C5003A
:1007D0008093C40088E98093C1008EE08093C200BA
:1007E00008959091C00095FFFCCF8093C6000895B6
:1007F0001F920F920FB60F9211240F931F932F93F6
:100800003F934F935F936F937F938F939F93AF9398
:10081000BF93CF93DF93EF93FF93C091C600809176
:1008200031018F93809130018F9382E091E09F930B
:100830008F9388E591E09F938F930E94310C0F90E6
:100840000F900F900F900F900F90CC3629F460E02E
:1008500083E090E00E94EC0EC436F9F48091300100
:10086000909131018A30910530F08436910530F451
:1008700002E010E005C001E010E002C003E010E07B
:10088000C0E0D0E007C0FE01E85AFE4F80810E9420
:10089000F1032196C017D107B4F3FF91EF91DF91D7
:1008A000CF91BF91AF919F918F917F916F915F9108
:1008B0004F913F912F911F910F910F900FBE0F906D
:1008C0001F9018958EEF84B981E085B980EF87B9C4
:1008D00088EB88B981EA8AB98DE58BB992E094BD3D
:1008E00083E085BD29EF27BD90936E0094E490933B
:1008F000810090E290936F009AE0909369008DBB25
:1009000094E09093680090E190936D0090EC909348
:100910007C009FEE90937A0010927B0098E3909376
:100920007E0093EA94BD85BD87E690E00E94E603D1
:1009300078940E94150820E048E065E088E690E0A1
:100940000E949E080E948E08609100017091010132
:1009500076956795709339016093380180E090E057
:100960000E94F10A23EC35EF48EC50E40E947F0B23
:1009700020E030E543EC57E40E94500A6B017C0113
:10098000609152017091530180E090E00E94F10A61
:10099000A70196010E947F0B20E030E040E752E47F
:1009A0000E947F0B0E94C20A709343016093420130
:1009B0004091460150914701469F9001479F300D5D
:1009C000569F300D1124C90160E17EE00E94EC0BBE
:1009D00070934B0160934A018091400187BD80E094
:1009E00090E00E94E40E90E090930101809300015A
:1009F0000E948A08CCE7D0E080EC888310925101F5
:100A0000109250012FEF31EE84E0215030408040B1
:100A1000E1F700C0000081EC888381E090E09093D2
:100A20005101809350019FEF21EE34E0915020401E
:100A30003040E1F700C0000060E088E70E940C0849
:100A400085E091E00E94CE0960E084E60E940C08F7
:100A500060914C0170914D0180E090E00E94E509A9
:100A600082EC888382E090E0909351018093500162
:100A70008FEF91EE24E0815090402040E1F700C0DC
:100A800000006FE088E70E940C0887E091E00E9478
:100A9000CE096FE084E60E940C0860914E017091CF
:100AA0004F0180E090E00E94E50983E090E00E9421
:100AB000E40E90E0909331018093300160914E01FB
:100AC00070914F018617970720F483E090E00E9411
:100AD000EC0E83E480937C0083E090E090935101DE
:100AE000809350013FEF81EE94E031508040904080
:100AF000E1F700C000006DE284E60E940C086091FE
:100B00002C0170912D0180912E0190912F010E9456
:100B1000E50980912C0190912D01A0912E01B091B9
:100B20002F0180389105A105B10520F08BB18068B7
:100B30008BB903C08BB18F778BB980912C019091C9
:100B40002D01A0912E01B0912F018F379105A105A4
:100B5000B10520F488B1806488B903C088B18F7B67
:100B600088B960E080E00E940C0889E091E00E9472
:100B7000CE0960E088E20E940C0860915A017091F1
:100B80005B0180915C0190915D010E94E5096FE03D
:100B900080E00E940C0880E191E00E94CE096FE0A5
:100BA0008CE30E940C08609100017091010180E0CB
:100BB00090E00E94E5096EE180E00E940C088BE164
:100BC00091E00E94CE096EE18EE10E940C086091D6
:100BD00052017091530180E090E00E94E5096DE2BE
:100BE00080E00E940C0880E291E00E94CE096DE254
:100BF00086E40E940C0860914A0170914B0180E0EC
:100C000090E00E94E5090E94DE0740914201509168
:100C100043019A01ADECBCEC0E94220C969587959D
:100C200096958795969587959C01220F331F880F7F
:100C3000991F880F991F880F991F820F931F9A0180
:100C4000281B390BC901880F991F8E719927909322
:100C500037018093360185B1817085B985B1806C8B
:100C600085B995B180913601892B85B98FE99FE0CF
:100C70000197F1F700C0000020914201309143013B
:100C80000E94220CAC01569547955695479556956E
:100C900047959A010E94220C96958795969587957F
:100CA000969587959C01220F331F880F991F880FF7
:100CB000991F880F991F820F931F9A01281B390BC8
:100CC000C901880F991F8E719927909335018093E0
:100CD000340185B1817085B985B1806A85B995B1D6
:100CE00080913401892B85B98FE99FE00197F1F755
:100CF00000C00000209142013091430136952795B4
:100D000036952795ABE7B4E10E94220CAC015695CD
:100D100047959A01ADECBCEC0E94220C9695879504
:100D200096958795969587959C01220F331F880F7E
:100D3000991F880F991F880F991F820F931F9A017F
:100D4000281B390BC901880F991F8E719927909321
:100D500033018093320185B1817085B985B1806698
:100D600085B995B180913201892B85B98FE99FE0D2
:100D70000197F1F700C00000E7CD6695669566958E
:100D8000E82FF0E080E8689FE00DF11D1124E9599B
:100D9000FE4F40830895669566956695E82FF0E0CE
:100DA00080E8689FE00DF11D1124E959FE4F808114
:100DB0000895CF93DF93DC01CB01FA0120E3228772
:100DC00021872087278326832583248323832283E7
:100DD00021832083BB234CF4B095A09590958195F9
:100DE0009F4FAF4FBF4F31E008C030E006C09A5C64
:100DF000AA49BB4321812F5F218381152AEC9207E9
:100E00002AE9A2072BE3B20794F706C0915EA54F2B
:100E1000B54022812F5F2283811521EE920725EFB5
:100E2000A20725E0B20794F707C080589649A84961
:100E3000B10923812F5F2383803826E9920728E9AF
:100E4000A207B10594F707C080549244AF40B1099E
:100E500024812F5F2483803422E492072FE0A207AD
:100E6000B10594F707C0805A9648A140B109258181
:100E70002F5F2583803A26E8920721E0A207B1057B
:100E800094F707C080519742A109B10926812F5FCD
:100E90002683803127E29207A105B1059CF707C0A0
:100EA000885E9340A109B10927812F5F2783883E7F
:100EB00023E09207A105B1059CF707C0845691096C
:100EC000A109B10920852F5F208784369105A105EE
:100ED000B105A4F706C00A97A109B10921852F5FC2
:100EE00021878A309105A105B105ACF706C00197AD
:100EF000A109B10922852F5F2287181619061A0643
:100F00001B06ACF320E001C02F5FDF01A20FB11D73
:100F10008C918033C9F3332331F02150DF01A20FCC
:100F2000B11D8DE28C934AE0421B30E00DC0832F4F
:100F300090E0EF01C80FD91F820F911DDF01A80FAC
:100F4000B91F8C9188833F5F431788F7E30FF11D2A
:100F50001082DF91CF9108950F931F93CF93DF936A
:100F6000C82F8B01D42F0E94320A88E70E94440ABE
:100F70008C2F0E94440AC0E007C0F801EC0FF11D5D
:100F800080810E94440ACF5FCD17B8F30E943C0ACB
:100F9000DF91CF911F910F910895CF93DF931F920F
:100FA000CDB7DEB7898341E0BE016F5F7F4F80E040
:100FB0000E94AC070F90DF91CF910895CF9381E20B
:100FC0000E94CD0780E00E94CD078FE70E94CD07E9
:100FD00082E20E94CD0780E00E94CD0787E00E9458
:100FE000CD07C0E00BC080E1C89FB0011124695952
:100FF0007E4F40E180E40E94AC07CF5FC03498F39D
:10100000CF910895882314F080935E010895803471
:1010100010F480935F010895CF93C62F0E940208B9
:101020008C2F0E940708CF9108950E94190A8EEA1A
:101030000E94CD0785ED0E94CD0780EF0E94CD076D
:1010400088EA0E94CD078FE30E94CD0783ED0E94BE
:10105000CD0780E00E94CD078DE80E94CD0784E196
:101060000E94CD0780E40E94CD0780E20E94CD0758
:1010700080E00E94CD0781EA0E94CD0788EC0E94A3
:10108000CD078AED0E94CD0782E10E94CD0781E85D
:101090000E94CD078FEF0E94CD0789ED0E94CD07FA
:1010A00081EF0E94CD078BED0E94CD0780E20E9468
:1010B000CD0784EA0E94CD0786EA0E94CD078EE222
:1010C0000E94CD078FEA0E94CD0760E080E00E9479
:1010D0000C08EEE5F1E086EA82831782168215821B
:1010E0001182108208951F93CF93DF93182FD0E0C1
:1010F0000BC0412F6D2F8C2F0E94BD06CF5F01C00A
:10110000C0E0CC23B4F7D85FD034D0F3DF91CF91D7
:101110001F91089580E00E947308089580916001F6
:10112000873A21F486EA8093600103C087EA8093BE
:101130006001809160010E94CD0708956623E4F06C
:101140004034D0F42230C0F4EEE5F1E094838383A0
:101150006583468350E041505109CA0199230CF43C
:101160000796959587959595879595958795EEE53D
:10117000F1E08F5F8783208708954F925F926F928F
:101180007F928F929F92AF92BF92CF92DF92EF9217
:10119000FF920F931F93CF93DF93AEE5B1E05C9086
:1011A00011964C901197805215969C911597179611
:1011B0002C911797929F900111242F5F3F4F829F90
:1011C000A001839F500D11241396ED91FC9114976B
:1011D0005A018FEFA81AB80AE40FF51F7490842DF6
:1011E0008770982E642C812C5FC0662D852D0E94FF
:1011F0000C087501E80CF11C670181E0C81AD108E0
:1012000010E041C08091610190916201FC01EE0DFE
:10121000FF1D2491492D50E030E0092C02C0220F1F
:10122000331F0A94E2F7022F8820A1F0FC01EC0D95
:10123000FD1DE49188E090E0841B950BF0E002C076
:10124000F595E7958A95E2F70E2F022B80916501BF
:10125000C80ED11C80916601813039F4EEE5F1E0D1
:10126000618180810E94CB06082BCEE5D1E06981A7
:10127000888191E0980F9883402F0E94BD068F814E
:10128000E80EF11C1F5F171508F4BCCF80916601B2
:10129000811107C0EEE5F1E040E0618180810E94AC
:1012A000BD0688E0680E839480916501881608F475
:1012B0009CCF242D26952695269530E080916401BB
:1012C00090E0840D911D0197AC0112F4495F5F4FCE
:1012D0005595479555954795559547952417350745
:1012E00009F445C08FE3861508F441C0662D852DAD
:1012F0000E940C08A80CB11C81E0A81AB10800E0FB
:1013000029C0CEE5D1E0F98018816F2D812F0E9490
:10131000CB06EB81FC81EA0DFB1D449128E030E017
:101320002919310950E002C0559547952A95E2F7F1
:10133000482B9885913009F4482BCEE5D1E081E027
:10134000810F88836F2D812F0E94BD068F81A80E8B
:10135000B11C0F5F0715A8F280916601811107C0CB
:10136000EEE5F1E040E0618180810E94BD06852DBF
:10137000870D642D8F5F0E940C08DF91CF911F9124
:101380000F91FF90EF90DF90CF90BF90AF909F9024
:101390008F907F906F905F904F900895CF93DF93E1
:1013A000EC010DC0EEE5F1E09081258130E0290FE0
:1013B000311D2038310534F421960E94BD08888102
:1013C0008111F0CFDF91CF9108950F931F93CF93A9
:1013D000DF93CDB7DEB72C970FB6F894DEBF0FBE04
:1013E000CDBF611571058105910521F480E30E944F
:1013F000BD0814C061157105810520E8920771F0E0
:101400008E010F5F1F4F2CE0F80111922A95E9F72A
:10141000A8010E94D906C8010E94CE092C960FB6D9
:10142000F894DEBF0FBECDBFDF91CF911F910F911A
:10143000089587B1806187B987B1806287B988B123
:10144000806188B988B1806288B91092B90088E457
:101450008093B80084E08093BC0008958091B90027
:10146000887F089584EA8093BC008091BC00882323
:10147000E4F70E942E0A089585ED8093BC008091C8
:10148000BC0084FDFCCF08958093BB0084E880936A
:10149000BC008091BC008823E4F70E942E0A0895C6
:1014A0000E94640A0C94450B0E943E0B58F00E9467
:1014B000370B40F029F45F3F29F00C942E0B5111AB
:1014C0000C94790B0C94340B0E94560B68F39923FF
:1014D000B1F3552391F3951B550BBB27AA27621730
:1014E0007307840738F09F5F5F4F220F331F441F3D
:1014F000AA1FA9F335D00E2E3AF0E0E832D0915071
:101500005040E695001CCAF72BD0FE2F29D0660F5D
:10151000771F881FBB1F261737074807AB07B0E8A0
:1015200009F0BB0B802DBF01FF2793585F4F3AF0A6
:101530009E3F510578F00C942E0B0C94790B5F3F75
:10154000E4F3983ED4F3869577956795B795F7952C
:101550009F5FC9F7880F911D9695879597F9089514
:10156000E1E0660F771F881FBB1F621773078407B0
:10157000BA0720F0621B730B840BBA0BEE1F88F7BF
:10158000E09508950E945E0B88F09F5798F0B92F60
:101590009927B751B0F0E1F0660F771F881F991FA8
:1015A0001AF0BA95C9F714C0B13091F00E94780BC7
:1015B000B1E008950C94780B672F782F8827B85FD7
:1015C00039F0B93FCCF3869577956795B395D9F700
:1015D0003EF490958095709561957F4F8F4F9F4F0A
:1015E0000895E89409C097FB3EF490958095709516
:1015F00061957F4F8F4F9F4F9923A9F0F92F96E95F
:10160000BB279395F695879577956795B795F111D3
:10161000F8CFFAF4BB0F11F460FF1BC06F5F7F4F70
:101620008F4F9F4F16C0882311F096E911C0772382
:1016300021F09EE8872F762F05C0662371F096E88B
:10164000862F70E060E02AF09A95660F771F881F5A
:10165000DAF7880F9695879597F9089597F99F6718
:1016600080E870E060E008959FEF80EC089500242A
:101670000A941616170618060906089500240A94F7
:1016800012161306140605060895092E0394000C7D
:1016900011F4882352F0BB0F40F4BF2B11F460FF0C
:1016A00004C06F5F7F4F8F4F9F4F089557FD905835
:1016B000440F551F59F05F3F71F04795880F97FB16
:1016C000991F61F09F3F79F08795089512161306D0
:1016D0001406551FF2CF4695F1DF08C016161706FF
:1016E0001806991FF1CF8695710561050894089534
:1016F000E894BB2766277727CB0197F908950E94C6
:10170000920B0C94450B0E94370B38F00E943E0B55
:1017100020F0952311F00C942E0B0C94340B112413
:101720000C94790B0E94560B70F3959FC1F3950FA3
:1017300050E0551F629FF001729FBB27F00DB11D55
:10174000639FAA27F00DB11DAA1F649F6627B00DE5
:10175000A11D661F829F2227B00DA11D621F739FCE
:10176000B00DA11D621F839FA00D611D221F749FDC
:101770003327A00D611D231F849F600D211D822F23
:10178000762F6A2F11249F5750409AF0F1F088234A
:101790004AF0EE0FFF1FBB1F661F771F881F915077
:1017A0005040A9F79E3F510580F00C942E0B0C94ED
:1017B000790B5F3FE4F3983ED4F386957795679570
:1017C000B795F795E7959F5FC1F7FE2B880F911DA1
:1017D0009695879597F90895AA1BBB1B51E107C001
:1017E000AA1FBB1FA617B70710F0A61BB70B881FB1
:1017F000991F5A95A9F780959095BC01CD01089540
:10180000A1E21A2EAA1BBB1BFD010DC0AA1FBB1F04
:10181000EE1FFF1FA217B307E407F50720F0A21B76
:10182000B30BE40BF50B661F771F881F991F1A94E3
:1018300069F760957095809590959B01AC01BD010D
:10184000CF010895A29FB001B39FC001A39F700D67
:10185000811D1124911DB29F700D811D1124911DB8
:101860000895AEE0B0E0E7E3FCE00C94080F0D89CA
:101870001E8986E08C831A8309838FEF9FE79E83FE
:101880008D83AE01475E5F4F6F89788DCE010196E3
:101890000E94530CEF81F885E00FF11F10822E9605
:1018A000E4E00C94240FABE0B0E0E9E5FCE00C943C
:1018B000FA0E6C017B018A01FC011782168283817A
:1018C00081FFCCC1CE0101963C01F6019381F70165
:1018D00093FD859193FF81917F01882309F4BAC11B
:1018E000853239F493FD859193FF81917F01853293
:1018F00029F4B60190E00E944A0EE7CF912C212CEA
:10190000312CFFE1F315D8F08B3279F038F48032C6
:1019100079F08332A1F4232D20611DC08D3261F056
:10192000803369F4232D216016C0832D8260382E08
:10193000E32DE4603E2E2AC0F32DF8601DC037FC75
:101940002DC020ED280F2A3040F08E32B9F436FC3D
:1019500081C1232D2064322E19C036FE06C08AE0D4
:10196000989E200D1124922E11C0EAE02E9E200D8B
:101970001124222EF32DF0623F2E08C08C3621F464
:10198000832D8068382E02C0883641F4F70193FD1C
:10199000859193FF81917F018111B3CF982F9F7D16
:1019A0009554933028F40C5F1F4F9FE399830DC02B
:1019B000833631F0833771F0833509F059C021C087
:1019C000F801808189830E5F1F4F88248394912CB6
:1019D000530113C02801F2E04F0E511CF801A08002
:1019E000B18036FE03C0692D70E002C06FEF7FEF5B
:1019F000C5010E943F0E4C018201F32DFF773F2E5F
:101A000016C0280122E0420E511CF801A080B180CE
:101A100036FE03C0692D70E002C06FEF7FEFC50195
:101A20000E94340E4C01F32DF0683F2E820133FCEE
:101A30001BC0822D90E088169906B0F4B60180E2B2
:101A400090E00E944A0E2A94F4CFF50137FC85916C
:101A500037FE81915F01B60190E00E944A0E21108D
:101A60002A9421E0821A91088114910471F7E8C048
:101A7000843611F0893641F5F80137FE07C06081E0
:101A80007181828193810C5F1F4F08C060817181D9
:101A9000072E000C880B990B0E5F1F4FF32DFF765E
:101AA0003F2E97FF09C090958095709561957F4F67
:101AB0008F4F9F4FF0683F2E2AE030E0A3010E9435
:101AC000860E882E861845C0853731F4232D2F7E4B
:101AD000B22E2AE030E025C0932D997FB92E8F36A3
:101AE000C1F018F4883579F0B5C0803719F088371F
:101AF00021F0B0C0E92FE061BE2EB4FE0DC0FB2D79
:101B0000F460BF2E09C034FE0AC0292F2660B22E11
:101B100006C028E030E005C020E130E002C020E14E
:101B200032E0F801B7FE07C0608171818281938144
:101B30000C5F1F4F06C06081718180E090E00E5FF6
:101B40001F4FA3010E94860E882E8618FB2DFF775B
:101B50003F2E36FE0DC0232D2E7FA22E891458F461
:101B600034FE0BC032FC09C0832D8E7EA82E05C02A
:101B7000B82CA32C03C0B82C01C0B92CA4FE0FC0F4
:101B8000FE01E80DF11D8081803321F49A2D997EAC
:101B9000A92E09C0A2FE06C0B394B39404C08A2D36
:101BA000867809F0B394A3FC11C0A0FE06C0B2145D
:101BB00088F4280C922C9B180EC0B21460F4B60165
:101BC00080E290E00E944A0EB394F7CFB21418F46A
:101BD0002B1802C0982C212CA4FE10C0B60180E363
:101BE00090E00E944A0EA2FE17C0A1FC03C088E745
:101BF00090E002C088E590E0B6010CC08A2D86789E
:101C000059F0A1FE02C08BE201C080E2A7FC8DE288
:101C1000B60190E00E944A0E891438F4B60180E3C0
:101C200090E00E944A0E9A94F7CF8A94F301E80D4F
:101C3000F11D8081B60190E00E944A0E8110F5CF1F
:101C4000222009F442CEB60180E290E00E944A0EC2
:101C50002A94F6CFF6018681978102C08FEF9FEF1D
:101C60002B96E2E10C94160FFC0105906150704038
:101C70000110D8F7809590958E0F9F1F0895FC0155
:101C80006150704001900110D8F7809590958E0FAB
:101C90009F1F08950F931F93CF93DF93FB01238121
:101CA00021FD03C08FEF9FEF2CC022FF16C046819D
:101CB0005781248135814217530744F4A081B181B3
:101CC0009D012F5F3F4F318320838C932681378185
:101CD0002F5F3F4F3783268314C08B01EC01FB013C
:101CE0000084F185E02D0995892BE1F6D80116963F
:101CF0008D919C911797019617969C938E931697AA
:101D0000CE01DF91CF911F910F910895FA01AA277B
:101D1000283051F1203181F1E8946F936E7F6E5F2E
:101D20007F4F8F4F9F4FAF4FB1E03ED0B4E03CD0DC
:101D3000670F781F891F9A1FA11D680F791F8A1FBF
:101D4000911DA11D6A0F711D811D911DA11D20D026
:101D500009F468943F912AE0269F11243019305DE0
:101D60003193DEF6CF010895462F4770405D4193D1
:101D7000B3E00FD0C9F7F6CF462F4F70405D4A331E
:101D800018F0495D31FD4052419302D0A9F7EACFE6
:101D9000B4E0A6959795879577956795BA95C9F715
:101DA00000976105710508959B01AC010A2E069408
:101DB0005795479537952795BA95C9F7620F731FC1
:101DC000841F951FA01D0895F999FECF92BD81BD76
:101DD000F89A992780B50895262FF999FECF1FBA52
:101DE00092BD81BD20BD0FB6F894FA9AF99A0FBE44
:101DF000019608952F923F924F925F926F927F9239
:101E00008F929F92AF92BF92CF92DF92EF92FF920A
:101E10000F931F93CF93DF93CDB7DEB7CA1BDB0BB6
:101E20000FB6F894DEBF0FBECDBF09942A8839885B
:101E300048885F846E847D848C849B84AA84B98462
:101E4000C884DF80EE80FD800C811B81AA81B9816E
:101E5000CE0FD11D0FB6F894DEBF0FBECDBFED0182
:061E60000895F894FFCF85
:101E6600410025750025004300736F6E61723A00CC
:101E76006469616D656E74726F3A0072706D3A00D6
:0C1E860044697374616E6369613A000086
:00000001FF
